:100000005555AAAA01B300001301091220140400D7
:100010004C010134000000000000000006D7C0774A
:1000200000091000E907000091020000A70200008B
:10003000BD020000D3020000E90200000000000041
:10004000000000000000000000000000AD1E0000E5
:10005000B11E000000000000FF020000B31E0000FF
:10006000B51E0000E11C0000CD1E0000191D00009F
:10007000CF1E0000D11E0000D51E0000E31E0000B0
:1000800011030000E71E0000E91E0000131F00001E
:10009000151F0000171F0000191F000000000000BE
:1000A0000000000000000000000000000000000050
:1000B0000000000000000000000000000000000040
:1000C0000000000000000000000000000000000030
:1000D0000000000000000000000000000000000020
:1000E00001B3000000F002F800F05EF80AA090E80A
:1000F000000C82448344AAF10107DA4501D100F0E3
:1001000053F8AFF2090EBAE80F0013F0010F18BF51
:10011000FB1A43F001031847DCD80000FCD80000AC
:1001200010F8013B0A4413F0030408BF10F8014B18
:100130001D1108BF10F8015B641E05D010F8016B9B
:10014000641E01F8016BF9D1002D15D010F8014B98
:1001500003F00C030C2BA1EB04040ABF10F8013BC5
:10016000A4EB8314A4EB032405F1010314F8016B41
:100170005B1E01F8016BF9D5914238BF10F8013BC5
:10018000D1D370470023002400250026103A28BF51
:1001900078C1FBD8520728BF30C148BF0B607047F9
:1001A0001FB51FBD10B510BDDFF80CD0FFF7F8FF6D
:1001B00001F0BAFF0DF0FCF90009100003B4FFF7DD
:1001C000F1FF03BC0DF0FCF90A484FF0FF0101708C
:1001D0004FF0000080F311884FF0000080F3098891
:1001E00005484FF00201017062B604484FF080519B
:1001F0000160704722ED00E00009100004ED00E00E
:1002000002484FF0805101607047000004ED00E0AB
:100210004FF0200080F31188EFF3098098B1124865
:10022000006812490968884217D0EFF309800E4927
:10023000096820E9F00F886000B50B48006800F0FD
:10024000F2F85DF804EB084808490A6802600068A3
:100250008168B1E8F00F81F309884EF0040E4FF089
:10026000000080F31188704704091000080910008D
:10027000EFF311804FF0200181F3118870470000E7
:100280004FF0000080F311887047000062B670479D
:1002900072B6704740BA7047C0BA7047401E002817
:1002A000FCDC704700BE704740BA7047C0BA704768
:1002B0001EF0040F0CBFEFF30880EFF309804FF03E
:1002C000010101F057BD1EF0040F0CBFEFF30880D1
:1002D000EFF309804FF0020101F04CBD1EF0040F56
:1002E0000CBFEFF30880EFF309804FF0030101F03A
:1002F00041BD1EF0040F0CBFEFF30880EFF309803F
:100300004FF0040101F036BD1EF0040F0CBFEFF3F7
:100310000880EFF309804FF0050101F02BBD4FF08D
:10032000000000B502F080FA5DF804EBFFF770BF43
:100330001EF0040F0CBFEFF30880EFF309804FF0BD
:10034000000101F017BD0000194910B50120087027
:1003500018490020086018490860184908601849C1
:10036000086000F0A7F900F039F900F063F8002008
:1003700010BD10B5114800F018F90F4908600D497B
:100380000968884207D00A480078022803D1BDE8EE
:100390001040FFF735BF10BD10B5FFF7EAFF044965
:1003A00002200870FFF710FF4FF0FF3010BD000073
:1003B0000009100004091000080910000C091000C1
:1003C0001009100070B50D460446C1698068CC2242
:1003D0000CF0F1FFE169A068084440384FF08071EB
:1003E000C163216A8163002141630163C16281624B
:1003F000C0E908514FF00B31C1614FF00A31816102
:100400004FF0093141614FF0083101614FF0073180
:10041000C1604FF0063181604FF0053141604FF00F
:100420000431016070BD82698168914201D801F098
:1004300016BF704710B54FF4B47146480CF0E5FF95
:10044000002010BD70B5054600EBC501414800EB2A
:100450008104FFF70DFF0646207828B13046FFF7EC
:100460000FFF6FF0010070BD032020700020656059
:10047000206204F11C0000F071F83046FFF700FF25
:10048000002070BD2DE9F0410F463249002500EBF8
:10049000C00001EB80042E46FFF7EAFE8046206A8A
:1004A0003843206204F11C00074600F07EF80CE09F
:1004B000216A026C114203D000F054F9012600E0D9
:1004C0006D1C2946384600F066F80028F0D1012E50
:1004D00001D1FFF74EFF4046FFF7D2FE0020BDE8F6
:1004E000F08170B50D461B4900EBC00001EB8004A4
:1004F000FFF7BEFE216AA9432162FFF7C1FE00207B
:1005000070BD2DE9F0410D46124900EBC0001E46BA
:10051000904601EB8004FFF7ABFE07460E480068EB
:100520000564216A294203D104F11C0100F02CF971
:100530003846FFF7A5FEFFF79BFE216A2940316090
:10054000B8F1010F02D1216AA9432162FFF798FE99
:100550000020C4E7E40F100004091000002101602E
:100560000846704730B50A6812B10B46C46B09E003
:1005700000220860C0E903210BE000BF02F10C0378
:10058000D26812B1D56BA542F8DC1A68C0E9032124
:100590001860002030BD0068002201E0C068521CD5
:1005A0008A4201D00028F9D170470068704702697B
:1005B0000AB1116831B96FF00400704701F10C0203
:1005C000C96839B18142F9D1C9681160002101615E
:1005D000084670476FF003007047000010B54FF4F5
:1005E000C87132480CF011FF002010BD2DE9F04118
:1005F000884605462D4900EB8500174601EBC004EF
:10060000FFF736FE0646207830B13046FFF738FE59
:100610006FF00100BDE8F08102202070E761142234
:10062000414604F1080065600CF080FE0020206265
:1006300004F12400FFF792FF3046FFF721FE00206F
:10064000E8E770B5194900EB800001EBC004FFF743
:100650000FFE0546D4E90701814205DB144804F189
:100660002401006800F090F8206A401C20622846AF
:10067000FFF706FE002070BD70B50C4900EB80004E
:1006800001EBC004FFF7F4FD0546206A08B1401EE7
:10069000206204F12400FFF788FF10B1606A00F0C7
:1006A00011F82846FFF7ECFD002070BD4C1110003A
:1006B0000409100010B54FF42A7140480CF0A5FE53
:1006C000002010BD10B5044690F8380002280BD069
:1006D0002046FFF76CFF022084F838003849204696
:1006E000FFF740FFFFF745FE002010BD2DE9F05F4A
:1006F0008B460646314900EB06109046DDE90AA913
:1007000011F820201D461AB16FF00100BDE8F09FDE
:1007100001EB8004FFF7ACFD074601202070C4E91F
:100720000165C4E90585C4E907A91422594604F105
:1007300024000CF0FBFD002084F8370084F838001A
:100740006169E0602061C4E90F1020460C99FFF751
:1007500039FEA0602046FFF7B5FF3846FFF790FD51
:100760000020D3E710B5044690F83800022809D0DD
:100770002046FFF71CFF022084F83800104920466D
:10078000FFF7F0FE002010BD70B5044690F8380069
:100790000D4602280BD12046FFF709FF032084F8FD
:1007A000380029462046FFF7DDFEFFF7E2FD002076
:1007B00070BD04480068406870470000DC121000FB
:1007C0000C09100004091000F0B58446002004460E
:1007D0000C4F14E05CF824600323DD0046FA05F2B8
:1007E00080EA02600825002802DA87EA400000E07B
:1007F00040006D1E002DF6DC5B1EEED5641C8C42A5
:10080000E8DBF0BD1B0000800D4880470D48004725
:10081000FEE7FEE7FEE7FEE7FEE7FEE7FEE7FEE7B0
:10082000FEE7FEE7FEE7FEE7FEE7FEE7FEE7FEE7A0
:10083000FEE7FEE7FEE7FEE7FEE7FEE7FEE7FEE790
:1008400057080000C50000004FF0005191F821004A
:1008500010F00C0009D0042809D0082809D078200D
:10086000401E01F8280F087070470F20F8E71E207F
:10087000F6E73C20F4E7704707493F200870E3E7BC
:10088000054933200870DFE7034800783F2801D08E
:1008900000207047012070472100002010B5084952
:1008A000042001240023C1F8FC00064A14601360F0
:1008B000054BA0221A70C1F8FC01C86710BD0000EA
:1008C00084E000E0D403002202E400E010B504203C
:1008D00000F0BBF8052000F0B8F8062000F0B5F8ED
:1008E000072000F0B2F8082000F0AFF868490020B7
:1008F000086067492031086066490880644A121D13
:100900001060634A243210608880614A08321060A7
:100910005F4A2832106008815D4A0C3210605C4AE0
:100920002C32106088815A4A10321060584A303296
:10093000106008825849086048600621042000F0D1
:100940009CF80621052000F098F80621084600F0E2
:1009500094F80621072000F090F80421082000F008
:100960008CF8042000F07DF8052000F07AF80620CD
:1009700000F077F8072000F074F8082000F071F814
:10098000042000F056F8052000F053F8062000F08F
:1009900050F8072000F04DF8BDE81040082000F0A6
:1009A00048B800EB80004FF6FF7101EA400138487B
:1009B0000022083002604FF00052118701210160CF
:1009C000704733490020083108607047334909787F
:1009D00048430A21B0FBF1F13148491E80F860100C
:1009E000442181761121C176042280F860204822BA
:1009F0008276C17670472A48002180F8601048212D
:100A000081761121C176704700EB80004FF6FF71AF
:100A100001EA40011E480022103002601D4A0E32D9
:100A200011800121016070471949002010310860D0
:100A3000704700F01F020121914040094FF0E02271
:100A400002EB8000C0F80011704700F01F02012186
:100A5000914040094FF0E02202EB8000C0F8801185
:100A6000704700F01F020121914040094FF0E02241
:100A700002EB8000C0F8801270474907090E002879
:100A800003DA00F00F00074A00E0074A815470477C
:100A90002405002232000020840000227309100087
:100AA0000010002014ED00E000E400E059480121AE
:100AB0000160002101607047574801210160002159
:100AC0000160704710B5002000F08BF853480022F9
:100AD0000260FFF7F1FFFFF7E9FF5148026051495B
:100AE000A0200870002000F088F8BDE81040002029
:100AF00000F06BB84A4801211C38016000210160F8
:100B0000704710B50446002000F06BF84348414997
:100B1000046001200860002000F06FF8BDE810407C
:100B2000002000F052B830B53C4889B00468002C71
:100B300011D0202168460CF068FC3B4800783A4B05
:100B400000216A465B1C02E0CD5C5554491C814281
:100B5000FADB1146A04709B030BD2E4901201C39EF
:100B6000086070473048203000782F4921310978DB
:100B7000401A00F03F0070472C4902780A70427812
:100B80004A7082788A70C278CA7002790A71427992
:100B90004A7182798A71C079C871704724480068A7
:100BA000417882784FF00050437A0374214B1B78D0
:100BB000437443891B0A83744389C3740175427566
:100BC000C1798175017AC175704700F01F0201215A
:100BD000914040094FF0E02202EB8000C0F8001184
:100BE000704700F01F020121914040094FF0E022C0
:100BF00002EB8000C0F88011704700F01F02012155
:100C0000914040094FF0E02202EB8000C0F88012D2
:100C1000704700005C840022A0000022140910002C
:100C20007C04002200E400E0000400200002002018
:100C30001C0910006809100070B5092000F05BF86D
:100C40000A2000F058F80521092000F06CF8052171
:100C50000A2000F068F8394C7F206070A070207185
:100C6000002004F84809364D286890F8DC01000699
:100C700009D514F84A0F20F002002070A07820F067
:100C80000200A0704A3C14F84A0F20F001002070C6
:100C9000A07820F00100A0704A3C092000F037F84D
:100CA0000A2000F034F8296891F81E01C20721D00B
:100CB000C0F342020120012A02D0224A83021360BB
:100CC0004834A27801F58F710B78C3F3420300FA20
:100CD00003F39A43A27022790B78C3F3420300FA1C
:100CE00003F31A43227122780978C1F34201884044
:100CF0000243227070BD00F01F02012191404009A3
:100D00004FF0E02202EB8000C0F88011704700F045
:100D10001F020121914040094FF0E02202EB8000C8
:100D2000C0F8801270474907090E002803DA00F066
:100D30000F00054A00E0054A815470474800002032
:100D40001C09100000E100E014ED00E000E400E008
:100D50007047C9484FF48051018000BF00BF00BFF9
:100D600000BF00BF00BF00BF00BF00BF00BF4FF407
:100D7000C051018000BF00BF00BF00BF00BF4FF4E3
:100D800040610180704710B5BB4C0720A41E607005
:100D90000020207044F2C000608000BF00BF00BF90
:100DA0004CF2C000608000BF00BF00BF4CF2E0000A
:100DB00060800920FFF772FA44F2E000608000BF13
:100DC00000BF00BF4FF48040608010BDF0B500252B
:100DD0002E464FF00054E02717E000BF883401F0A2
:100DE0003F0160702170678000BF00BF00BFD4F872
:100DF00008C043F825C06680883C00BF6D1C521EA9
:100E0000491C3F2901D9401CC0B2002AE6DCF0BDD4
:100E100070B5994C2126268000BF00BF00BF00BFDF
:100E200000BF40F02105258000BF00BF00BF00BF0C
:100E300000BF44F22101084320800420FFF72EFA6E
:100E4000258000BF00BF00BF00BF00BF268000BFDD
:100E500000BF00BF00BF00BF0020208000BF00BF58
:100E600000BF00BF00BF70BD70B5044682480025BA
:100E70000580824E0120306000F0EBF8FFF783FF21
:100E800000F0D7F85C20FFF7C3FF234601220221C0
:100E90000720FFF79BFF231D012203210620FFF7F8
:100EA00095FF04F10803012204210520FFF78EFFBE
:100EB00004F10C03012203210720FFF787FF04F14F
:100EC0001003012204210720FFF780FF00F0B1F892
:100ED000FFF759FFFFF73DFF356070BD70B5044661
:100EE000654800250580654E0120306000F0B1F8AE
:100EF000FFF749FF00F09DF85C20FFF789FF2346CC
:100F0000012208210020FFF761FF231D0122092192
:100F10000020FFF75BFF04F1080301220A210020F3
:100F2000FFF754FF04F10C0301220B210020FFF70F
:100F30004DFF04F1100301220C210020FFF746FFB2
:100F400004F1140301220D210020FFF73FFF00F000
:100F500070F8FFF718FFFFF7FCFE356070BD2DE954
:100F6000F0439946079B002603B18026434C00239B
:100F7000803CC0B21F4665044FF001081DE000BF71
:100F800085F8890001F03F0C4CEA060C85F888C012
:100F900059F823C0C5F88CC0C4F8B080C4F8B0704C
:100FA000491CC9B2402902D3401CC0B20021D4F868
:100FB000C0C0BCF1000FFAD15B1C9342E0DBBDE87E
:100FC000F0834FF0005282F88900002319B180208D
:100FD00082F8880001E082F88830284801218038B2
:100FE000C0F8AC10C0F8AC30D0F8C0100029FBD16C
:100FF000704738B50C4605460021F820FFF7E1FFA1
:101000000020014600902B462246F820FFF7A7FF5C
:1010100038BD38B50C46054601210020FFF7D1FF49
:101020000120002100902B4622460846FFF797FF3B
:1010300038BD10B5104C4FF4804020800420FFF7DD
:101040002DF90020208000BF00BF00BF00BF00BFFF
:1010500010BD10B5084C4FF4C050208000BF00BF39
:1010600000BF00BF00BF4FF4805020803520FFF745
:1010700015F90020208010BD8A0000208010002279
:10108000F8B5F84E00252C463570012000F0C7FA5F
:101090000E2000F0C4FA0D2000F0C1FA0C2000F080
:1010A000BEFA032000F0BBFA012000F0C4FA0E20C3
:1010B00000F0C1FA0D2000F0BEFA0C2000F0BBFADF
:1010C000032000F0B8FA00F064FC6A460221E6480A
:1010D00000F0FEFDE5499DF8010008709DF8000054
:1010E000432800D003250521012000F0B0FA052196
:1010F0000E2000F0ACFA05210D2000F0A8FA052121
:101100000C2000F0A4FA0621032000F0A0FA012030
:1011100000F079FA0E2000F076FA0D2000F073FA54
:10112000032000F070FAB47074702846F8BD38B52A
:101130000D46009014460421684601F097F8CC490A
:101140008978C90602D5012D00D1401C009961643F
:1011500084F8420038BD2DE9F047C54C0646C54D20
:10116000002084F83A0029684FF002084FF0E9099E
:1011700091F845076074C048052EC0F30E0720465D
:10118000806A06D0062E1DD0032E3DD0042E56D0E8
:101190007BE0B74A3146FFF7CAFFE06AE064A78701
:1011A000A07880060028286890F8590703DA20F014
:1011B000060040F0040084F8400084F8418084F880
:1011C0003E9062E0AA4A3146FFF7B1FFE06AE06470
:1011D000A7480421283001F049F8A74901EB800015
:1011E000C0F30E00A087A07880060028286890F839
:1011F000590703DA20F0060040F0040084F84000AC
:1012000084F84180ED2017E0994A3146FFF78FFFBF
:10121000E06AE064A787A07880060028286890F834
:10122000590703DA20F0060040F0040084F840007B
:10123000042084F84100E52084F83E0025E0A278EF
:10124000920622D501F2C9310A7804F8342FCA78FF
:10125000A2704A78E270897821710121A171844AD3
:101260003146FFF764FF8448F830C0F30E00208158
:10127000286890F8590720F0060040F0020020731B
:1012800084F80D8084F80A90343CA0788007002808
:10129000286890F86C0701DA20F0030084F83F001A
:1012A00070484670BDE8F047714800F03ABC70B530
:1012B0006F4C0546002084F83A006E4EE12084F819
:1012C0003E003068012D90F84517617417D16B49C5
:1012D0006B4AC1F30E01A18790F85317127801F001
:1012E000F00102F00F021143E17690F855076077A4
:1012F00022462946A068FFF71AFFE068E06460888C
:10130000C10705D094F83E1041F0020184F83E1068
:1013100080070028306890F86C0701DA20F003009D
:1013200084F83F004F484570BDE87040504800F0D9
:101330009BBB01280AD0022808D0052805D0062822
:1013400003D0042801D0032801D104E7AFE7704798
:10135000F8B5444D0746012901D10020E870EC782A
:10136000484E641C08E000BF56F824206946384601
:101370009047012804D0641C072CF5D90020F8BD43
:10138000EC709DF80000F8BD70B50188002925D0EB
:1013900001465022364801F0B0F9324D68780028F5
:1013A0001CD101213248FFF7D3FF040016D0364983
:1013B000012008702F48006890F8181149070ED5D1
:1013C00090F8430780070AD400F07AFC0220A87046
:1013D00000F07AFC192000F03FFB6C7070BD00201B
:1013E00028702046BDE87040A3E70020704782685F
:1013F000120005D00078C00702D0012008707047A5
:1014000000207047026A120006D00078000703D55A
:10141000022008700120704700207047826A120085
:1014200008D0C26A32B10078800603D50320087064
:101430000120704700207047826A120006D00078B1
:10144000C00603D5042008700120704700207047B3
:10145000826A12001AD00078800717D5052008701C
:1014600001207047180910000410002068091000BE
:10147000841510001C0910008087012000800120C5
:10148000F6071000ACD50000710910000020E8E755
:10149000C26A32B10078400703D5062008700120E7
:1014A000DFE70020DDE7002008700120D9E72DE903
:1014B000F04104216B4800F0D9FE0446694804213C
:1014C000001D00F0D3FE684F0546DFF8988178785C
:1014D000664EA8F12808052801D003280CD198F8F9
:1014E0000200800602D5A200604902E0620006EB1D
:1014F00044015F4801F001F97878062801D00328FB
:1015000011D198F80200800603D5AA0006EB8401E9
:1015100004E005EB44006A0006EB4001BDE8F04141
:10152000544801F0EAB8BDE8F0811FB500F004FAB4
:1015300001208DF80000504801904C480290F8308E
:101540000390484828384168684688471FBD7FB5E2
:10155000FFF7ADFF434800212838FFF7F9FE10B12F
:10156000FFF7E7FE7FBD404C4448002565704449C5
:101570000570A42008734348006890F818014007DC
:1015800002D5A57000F098FB207801280DD08DF8C9
:1015900000503948019035480290F83003903148A6
:1015A00028384168684688477FBD02208DF80000D2
:1015B000EFE770B53348314D4FF00004016891F802
:1015C0001801420728480AD591F84317890706D41D
:1015D0008178012908D002290FD0032903D1847012
:1015E000FFF7A3FF2C7070BD0221817000F06CFB2F
:1015F000BDE87040322000F02FBA0321817040789E
:10160000BDE8704095E600F01F02012191404009BD
:101610004FF0E02202EB8000C0F8001121E700F05B
:101620001F020121914040094FF0E02202EB8000AF
:10163000C0F8801115E700F01F0201219140400918
:101640004FF0E02202EB8000C0F8801209E7490762
:10165000090E002803DA00F00F000B4A00E00B4AE5
:101660008154FEE6AC151000180910008087012097
:10167000E8890120608A01200080012071091000A2
:10168000001000201C09100014ED00E000E400E050
:10169000F0B527260022FF4DFF484FF480115C274C
:1016A0000C46002303EB000E11F803C05B1C8EF800
:1016B00060C00C2BF6DB2B68002BFCD18276C77642
:1016C00004F10C0103EB000E11F803C05B1C8EF853
:1016D00060C00C2BF6DB29680029FCD1511C8176F7
:1016E000C776921C04F12D01B2EB460FD8DBF0BD9A
:1016F0002DE9F0479246089E5B1EC6F108010022C4
:10170000E54C01F0FF0C1546002189469A420BDAA0
:1017100000EB0208875C98F8018027FA06F708FAC0
:101720000CF847EA080703E007D1875C27FA06F7B9
:1017300001EB040888F8607003E001EB040888F806
:10174000609001F1010102F101020C29DEDBD149B7
:101750000F68002FFCD10AEB0501A1765C21E17630
:101760006D1C022DD0DBBDE8F08718B500241123D5
:101770005C222146C9480094FFF7BAFFC7481823E6
:10178000622200211E300094FFF7B2FF18BD2DE940
:10179000F0470024DFF8FC82BF49824625462646F2
:1017A0004FF05C0900209C4206DA00EB010C1AF8AD
:1017B00004708CF8607002E0471887F86060641C61
:1017C000401C0C28EFDB00BFD8F800000028FBD13C
:1017D0005019887681F81B906D1C032DE2DBC2E75F
:1017E000AE4800B516235E2200216438FFF7CFFF14
:1017F000AA482023642200213C385DF804EBC6E7A8
:1018000070B50023A44C05E0CD5C1E195B1C86F866
:1018100060505BB29342F7DB9E490B68002BFCD112
:10182000A07642F01000E07670BD30B59C4C0722E7
:101830000220216801F24271FFF7E2FF21680222D3
:1018400001F24A710920FFF7DBFF2168012201F252
:101850004C710B20FFF7D4FF2168062201F24D7175
:101860000C20FFF7CDFF8D4920688A318D4D90F80F
:101870005307097800F0F00001F00F0108432870C9
:10188000012229461220FFF7BBFF2168072201F23F
:1018900054711320FFF7B4FF80480122893000788B
:1018A00000F00F01206890F85B0761F31F102870AB
:1018B00029461A20FFF7A4FF2168042201F25C7177
:1018C0001B20FFF79DFF754802228D3029460078C6
:1018D000287072488B30007868701F20FFF790FFE7
:1018E0002168062201F262712120FFF789FF6B480F
:1018F00002228E3029460078287068488C300078A3
:1019000068702720FFF77CFF2168022201F26A71CC
:101910002920FFF775FF2168072201F26C713D2035
:10192000FFF76EFF206890F8C0175F480170332101
:1019300041740B21817430BD5C48002202605B4819
:101940001C3802605A480261012101618260816095
:101950000260016002604F49A0F574700B68002BB3
:10196000FCD14D490B7B43F020030B730B7B23F021
:1019700040030B730B7B23F080030B730B7B23F073
:1019800020030B73C0F8D823C0F8E0234948027045
:10199000704730B5464800247430046044488030B5
:1019A00004604348C4600121C160C46004600160F8
:1019B00004603D4D2020AD1D287068703649593DAA
:1019C0000873A42008733348183001680029FCD13B
:1019D000FFF7B2FFFFF729FFFFF702FFFFF7C5FE92
:1019E000FFF756FE34480460334820300460AC856D
:1019F00030BD38B50546284C406C00906073010A34
:101A0000A173010CE173000E2074042269462B209F
:101A1000FFF7F6FE012205F142012F20FFF7F0FE4D
:101A200095F84200A074E86C0090E074010A2175FA
:101A3000010C6175000EA075042269463520FFF780
:101A4000DFFE0098800F84F84000164901220870DC
:101A50003920FFF7D5FE38BD174900220A600A0673
:101A6000908501200860704770B50446FFF7C1FFFC
:101A70000D48A18F401C0180217C00F8011C94F8C6
:101A80003E104173044DA07C85F83600042204F119
:101A9000110113E0040B0022001000206C0710005D
:101AA0001C091000D4151000530000201C0C00224B
:101AB000D003002219091000200500220520FFF79D
:101AC0009FFEA24E02220920316801F24A71FFF7FF
:101AD00097FE022204F116010D20FFF791FE02226B
:101AE00004F118010F20FFF78BFE3068052204F186
:101AF0001A0190F8540720771120FFF781FE012288
:101B000004F13F013D20FFF77BFE91480168012968
:101B1000FCD194F83E002873BDE8704041F2883053
:101B20009AE770B50446FFF764FF8A48A18F0180E9
:101B300094F8351000F8011C94F83E104173834E60
:101B400002220920316801F24A71FFF759FE022290
:101B500004F130011B20FFF753FE022204F1320191
:101B60002320FFF74DFE012204F134010720FFF787
:101B700047FE012204F137010820FFF741FE012250
:101B800004F138012120FFF73BFE012204F1390165
:101B90002920FFF735FE012204F140011820FFF74C
:101BA0002FFE012204F141011920FFF729FE3068C0
:101BB0006949012290F8540720F0F00008701320C2
:101BC000FFF71EFE94F83A00644DC00708D0306855
:101BD00000F2C67190F8C60785F83600012206E0CB
:101BE00094F8360085F83600012204F1360106200B
:101BF000FFF706FE012204F13F013D20FFF700FE42
:101C0000534801680129FCD194F83E002873BDE8CF
:101C1000704041F288301FE74C49514B0A6892F8F6
:101C20004D2702700A68B2F85027428009681B7875
:101C300001F2547103F00F0311F8012C02F0F002CD
:101C40001A4302714A89C2804A8A0281CA7B82721F
:101C5000CA7DC27249780173704710B504460146C7
:101C600001220C20FFF7CCFD0222A11C0F20FFF760
:101C7000C7FD0122211D1220FFF7C2FD0222A11D76
:101C80001D20FFF7BDFD022204F108012520FFF70A
:101C9000B7FD012204F10A012220FFF7B1FD012264
:101CA00004F10B012A20FFF7ABFD04F10C01012226
:101CB000BDE810401420A3E52849042008737047AC
:101CC00026492020087370472449C02008737047B4
:101CD00070B51F4C1C342368002BFCD11D4603E05B
:101CE000C6185B1C86F880508B42F9D32368002B02
:101CF000FCD102E0C45CD4545B1C8B42FAD370BDAF
:101D000010B500F0ACFD17490020086016490978AD
:101D100079B10F48001D01680029FCD10F48C07837
:101D2000400602D5114901200870BDE81040FFF7B8
:101D30000EBC0F49087010BD10B500F090FD0949A8
:101D400000200860BDE81040FFF733BC1C091000FC
:101D5000000B002254000020D415100000100020B9
:101D6000F6071000200500221909100018091000BC
:101D7000710910000446012003F03FFD00210F20EF
:101D8000226803F04FFD01210F20626803F04AFD35
:101D900002210F20A26803F045FD03210F20E26815
:101DA00003F040FD0C210F20226903F03BFD0E21C2
:101DB0000F20626903F036FD0F210846A26903F087
:101DC00031FD20210F20E26903F02CFD3E4802681E
:101DD00021210F2003F026FD3B4810380268222104
:101DE0000F2003F01FFD38480C38026823210F2014
:101DF00003F018FD34480838026824210F2003F04E
:101E000011FD3148001D026825210F2003F00AFD55
:101E10002D483438026826210F2003F003FD2A489C
:101E20001438026827210F2003F0FCFCFEF7C1FCE8
:101E3000024630210F2003F0F5FCFEF7F5FDFEE72A
:101E400010B5012805D0022805D0032809D00321A8
:101E500002E0012100E00221BDE81040032003F070
:101E6000CCBC0021032003F0C8FCFEF7DDFDFEE73B
:101E700010B504460146042003F0BFFC012C02D13A
:101E8000FEF7D2FDFEE710BD0146082003F0B5BC09
:101E90000146062003F0B1BC10B5044601460720F8
:101EA00003F0ABFC34B1012C07D0022C08D1FEF7B3
:101EB000BBFDFEE7FEF7B8FDFEE7FEF7B5FDFEE76A
:101EC00010BD0220E8E7000038ED00E000F0C7BCDC
:101ED00070477047194810B5016821F0040101608E
:101EE00000F0BDFCBDE81040FEF71DBE7047704716
:101EF00000F0B5BC10B500F0B2FCBDE8104003F036
:101F0000A0BF00F0ACBC70470D4810B5007F10F0CA
:101F1000040F0DD000F0A3FC0A480078012803D07C
:101F2000BDE8104003F07CBBBDE8104000F0F9BFF5
:101F300010BD7047704770477047000010ED00E01B
:101F4000001000207009100010B54E2188480BF0D9
:101F50003AFA87488749884A0180828087494180C8
:101F6000874BC380874C0481874C4481874C848194
:101F7000874C4482874C8482874CC482874C04837C
:101F8000C387418782878649A0F840108549096840
:101F9000B1F86220A0F84220B1F8C621A0F8442090
:101FA000B1F8A120A0F84620B1F8F021A0F848200F
:101FB000B1F85421A0F84A20B1F85221A0F84C20E1
:101FC0007748B1F84E274280B1F85C27C280B1F85B
:101FD0006417018110BD744801787448552901D0F7
:101FE000132102E07049491C097801707047F0B56F
:101FF00085B0FF22142168460BF0DDF96846FEF734
:1020000033FF039803250127072645F2AA54A0426F
:1020100002D00498A0423AD1DDE90001884206D0FE
:102020000299884203D00198884208D10090049810
:10203000A0420FD10098000E012804D006E0002035
:10204000FFF726FF0FE00098C0F301370098C0F3B8
:10205000032602E00120FFF71BFF0398A04214D1E2
:10206000009800F00705524907F0030040EA061007
:1020700081F86000012088761120C8764D480178EB
:1020800065F30201017005B0F0BD0220D8E7012020
:10209000FFF7FEFEF9E710B5FEF7EEFBFEF712FDC7
:1020A000404C20680078A52802D00120FFF7E0FE10
:1020B0004148006810B10020FFF7DAFE4FF00851E8
:1020C0000120C1F8980320683C4A90F8281101F0DB
:1020D0000101116090F82801111DC0F34000086053
:1020E000374900200860091F0860091F0860FEF7D3
:1020F0002FFEFEF7EBFBFEF7C3FF032801D1FFF72E
:102100009FFEFEF74BFDFEF7C9FBFEF795FD284845
:10211000802180F86010042181761121C176FFF7BB
:1021200066FFBDE8104056E74BF2013010B541079D
:102130004881FFF7B0FFFFF707FF22493F20086003
:1021400021490020086022482049016001F508600B
:1021500020490860204800F096F9FEF799F800F051
:102160003DF8FEF793F8FEF717F9012010BD0000C7
:10217000000001200080012064960120E48E0120EF
:102180004E00012080870120C22A0120FE2A012062
:10219000442B0120802B0120CE2901200A2A012076
:1021A0007C2F10001C091000F207100073091000AA
:1021B0000010002020000020C81000228804002207
:1021C000280A0022402B012064091000641D100021
:1021D0004409100048091000642E10007FB5FEF776
:1021E000B3F8204D002400BF05EB441000F11002AD
:1021F000017F4CCACDE90261CDE900230FC8FEF78B
:1022000075FA10B10120FFF747FE641C072CEBDBC9
:10221000144D002415F1E00504EB440005EB8001AA
:10222000091D55F8200006C9FEF7E0F910B101209C
:10223000FFF732FE641C072CEEDB0B4D002400BFC1
:1022400005EBC400416855F83400FEF7FBF810B107
:102250000120FFF721FE641C062CF1DB7FBD4068E6
:10226000FFF72FBECCD5000000D7000070B50346A5
:1022700000200246FE4C09E09D5C521C05F00F0652
:1022800004EB1515A65D2D78304428448A42F3DB13
:1022900070BD884200D308467047884200D808467F
:1022A0007047884200D30846904200D310467047DA
:1022B000F0480068017B427B41EA0221827BC07BBF
:1022C00041EA024141EA006040007047E948006885
:1022D0000179427941EA02218279C07941EA0241D9
:1022E00041EA0060704700B5FFF7E2FF4008400098
:1022F00000BDF8B50E460446FFF7F5FF0090FFF766
:10230000D7FF054604216846FFF7B0FF04EB4007FE
:1023100000240099204623464FF0010C0CFA03F2EA
:102320000A4207D02A4204D037F8102026F8142099
:10233000641C401C5B1C1E2BF0DBF8BDC6E7FCB523
:102340000E460746FFF7CFFF0190FFF7BFFF009053
:10235000FFF7BCFF0546042101A8FFF787FF0446ED
:1023600004216846FFF782FF00EB440007EB4007BB
:1023700000200099044603464FF0010C0CFA03F2CA
:102380000A4207D02A4204D037F8142026F8102039
:10239000401C641C5B1C202BF0DBFCBD00B5FFF770
:1023A00087FF40F0010000BD90E7B34A520102EB05
:1023B000810101F1085108607047C0EB001001EB8A
:1023C0008000801001EB41014900182291FBF2F3DB
:1023D00000EB400000F5801002FB1311006820F0B4
:1023E0007F40C84000F03F007047C0EB001001EB99
:1023F0008000801010B501EB41014900182391FBCA
:10240000F3F403FB141300EB400000F580103F24AD
:1024100001689C40A1439A400A430270110A41702E
:10242000110C817010BD821002EB4202114400EBCE
:1024300040004000182290FBF2F301F5801102FBEE
:102440001302086820F07F40D04000F03F00704742
:10245000831003EB43031A4410B500EB4000400027
:10246000182390FBF3F403FB140302F580123F24BE
:1024700010689C40A043994001431170080A5070B5
:10248000080C907010BD2DE9F14F782100980AF0EA
:10249000BCFFFFF783FF4FEA5008FFF717FF4FF02D
:1024A000000C814666464FF0010A00BF0AFA06F1A9
:1024B00011EA090F1ED00024012725460AFA0CFB59
:1024C0000AFA05F010EA080F0FD031462846FFF748
:1024D00074FFA04207D00099009A51F8271041EAF2
:1024E0000B0142F8271004467F1C6D1C272DE7DBEB
:1024F0000CF1010C761C202ED8DBBDE8F88F2DE9FD
:10250000F04F83465B4800242246D0F800A001210A
:102510009AF81450A5F1010621E003200123DFF809
:102520005CE103FA01F99AF8157015E05EF820C035
:102530001CEA090F0FD0A0F1010300FB051C03FBEF
:1025400005183BF91CC03BF91830BCEB030300D560
:102550005B421C44521C401C8742E7DC491C8E42F3
:10256000DBDC02B9012294FBF2F0BDE8F08F2DE92B
:10257000FF4F85B0002103910291019100913D49E7
:10258000012B0C6894F8775005F00F0700D1002755
:10259000667D94F87A30C7F1100BB34200D21E4624
:1025A00000230493012389E04FF00009C846032467
:1025B0001FE0324951F824C0012199401CEA010F63
:1025C00004FB053130F911C0A4F1010101FB053113
:1025D00030F91110ACEB010106D0002900DA4942B4
:1025E000DDF818C0A1EB0C01002900DA494289444A
:1025F000641CB442DDDB31469EF815A01FE01F4C81
:1026000054F821C001249C401CEA040F01FB05344E
:1026100030F914C0A1F1010404FB053430F9144071
:10262000ACEB040406D0002C00DA6442DDF818C0DC
:10263000A4EB0C04002C00DA6442A044491C8A4537
:10264000DDDC0499012910D10199B1EB090101D513
:10265000C1F10001039C214403910099B1EB0801F1
:1026600000D54942029C21440291CDE9008907E04E
:1026700030D700001C091000402B0120642E1000F0
:102680009EF87B10994216D11168039D79430BFB8C
:102690000511CC1701EB1471091111609168029DAD
:1026A00079430BFB0511CC1701EB147109119160F3
:1026B00000210391029101215B1C0491EA49D1F8A8
:1026C00000E09EF81450691E99423FF76DAF5068C4
:1026D000039978430BFB0100C11700EB1170001147
:1026E0005060D068029B78430BFB0300C11700EBDE
:1026F00011700011D06009B037E703E011F8013B19
:1027000000F8013B521EF9D270477CB50D460446D5
:10271000FFF7E9FD0090FFF7D9FD01900098042133
:10272000400800906846FFF7A1FD0646042101A875
:10273000FFF79CFD3044820021462846FFF7DDFF6D
:102740007CBD0B46C84909684A7D097D521C4A4335
:10275000014652001846D0E770B5044650210AF0F1
:1027600054FE0020C04B20806080196891F8C51786
:1027700001F0010140EA411161801A6892F8452791
:10278000D20941EA021161806060FFF707FEA06094
:10279000FFF79CFDB54DE0606888E082186800F2A4
:1027A0004670C27A817A02F03F0241EA0221218317
:1027B0004178E17490F87A1021740178A1748178DD
:1027C0002175017BA176AA49407B097800F0F000D1
:1027D00001F00F010843E076FFF785FDA062FFF7E7
:1027E00075FDE062E88820866086186800F2C17096
:1027F000017884F83410817884F83510C17884F831
:102800003610417884F8371010F85F1C84F83810BF
:1028100010F8571C84F8391010F86B1CA17710F8C9
:10282000550C84F83F0070BD10B50446FDF730FD2F
:10283000012C0BD18C48006890F81801800705D551
:10284000FEF722F838B1FEF71BF804E0FEF71CF89B
:1028500008B9FEF711F8BDE81040FDF717BD85482F
:1028600010B5006818B941F27070FEF7CDF8BDE8F8
:1028700010400020D8E77C4B10B51A68947E64079E
:1028800004D5D28A0468A2EB040202601A68947E1E
:10289000A40703D5128B0C68121B0A600268002A79
:1028A00000DA002202601C68E48AA24200DD2246AF
:1028B00002600A68002A00DA00220A601C68248B81
:1028C000A24200DD22460A601B689B7EDB0702D025
:1028D00003680B60026010BDF0B500252C4608E0CF
:1028E00031F9146030F91470F61B964200DD6D1C4E
:1028F000641C9C42F4DB012D01D90120F0BD0020B5
:10290000F0BD2DE9F04F9246DDE909B7012547F604
:10291000F87256429946AC46002416E030F814305E
:1029200031F81480A8EB03031BB29A4200DD1A466B
:102930009E4200DA1E46002B02DA4FF0000502E04C
:1029400001DD4FF0000C04F10104BC42E6DB55EA66
:102950000C0306D0012D01D02DB108E0BCF1010F10
:1029600005D1002203E0BCF1010F00D13246002561
:102970002C462B4611E000BF30F8136031F813C02D
:102980001644ACEB060636B24E4505DACBF1000C28
:10299000664501DD3544641C5B1CBB42ECDB95FBEA
:1029A000F4F10A44002105E030F8113013442AF80C
:1029B0001130491CB942F7DBD7E570B52A4B1B68CB
:1029C0005C7D1B7D641C5C43002307E032F81350E0
:1029D00030F81360AD1B21F813505B1CA342F5DBEC
:1029E00070BD254901200860810224480AF0EBBC33
:1029F0002DE9F041064615460F46302801D1FFF774
:102A0000F0FF1D4C20682844401CB0F5806F01D2B7
:102A1000206801E001202060184908700E542DB193
:102A20000844401C2A463946FFF767FE20682844C0
:102A3000401C2060BDE8F081024600204FF080413C
:102A400000E089089142FCD807E04318934202D87D
:102A5000D21A00EB4100400889080029F5D18242D2
:102A600000D9401C704700001C0910007C2F10008A
:102A7000F60710003405002220091000CE250120A1
:102A800010B501461022FE48FFF737FEBDE81040A2
:102A90004FF400610120FDF7F5BC70B596B0064615
:102AA0000C4615466846FFF757FEE80702D001209E
:102AB000ADF80000680705D5BDF8000040F0200023
:102AC000ADF80000ADF83240ADF81660ADF830401A
:102AD000AFF25300EA4D03244FF4006601906846BC
:102AE000FEF752FC14AB002231460120FDF709FD30
:102AF00031460120FDF7F5FC2878002804D0FFF7C7
:102B00009FF9641E002CEADC16B070BD2DE9F0417F
:102B1000DC4901260024096810F4D17F91F82110C6
:102B2000C1F3011106FA01F600D0042410F0050FDC
:102B300001D044F00104C00601D544F00204002C89
:102B40000AD00025D04F05E0F98878882246FFF7A3
:102B5000A4FF6D1CB542F7DBBDE8F0812DE9F35F02
:102B6000C8488B4601260068447D017D90F821000D
:102B7000641C4C4300F00707BE404FF48851C34823
:102B80000AF043FC0025DFF80483DFF8FC92DFF84D
:102B9000F0A21AE0B9F8061001220098FFF77DFFB5
:102BA000BB49DAF8040002F0E2F8B94A00204146D5
:102BB00008E000BF51F8203032F910C0634441F8FA
:102BC0002030401CA042F5DB6D1CB542E2DB00204A
:102BD000414605E051F820203A412BF81020401CD6
:102BE000A042F7DBBDE8FC9F2DE9F74F82B091468C
:102BF000FFF779FB0090FFF7A1FB019004216846E5
:102C0000FFF734FB0446042101A8FFF72FFBDFF890
:102C100074B220444400DBF80000012690F8210043
:102C200000F00707BE40A10098480AF0EEFB00251F
:102C3000DFF858A221E09448042203994088FFF766
:102C40002CFFDBF800108E4891F8C517D0F80880EB
:102C5000C90704D0C1684246404601F061FF002028
:102C6000514607E051F8203038F910201A4441F855
:102C70002020401CA042F5DB6D1CB542DBDB834D00
:102C80000021524606E000BF52F82100384125F8E5
:102C90001100491CA142F7DB029810F0220F09D065
:102CA0002846D9F80010FFF724FB2846D9F804106D
:102CB000FFF745FB05B0BDE8F08F70B5714D754E5F
:102CC00000242868C4EB041100EB440006EBC1119A
:102CD000B0F8EF00FFF742FF641C042CF1DB70BD7D
:102CE0000EB5002102916C4900916C490191664931
:102CF0006A46C988FFF778FF0EBD70B5044600200C
:102D0000FDF79FFC0320FDF79CFC5E4D286890F8C2
:102D10002010490701D424F4006490F85011C90729
:102D200009D190F8B011C90705D190F80511C9076C
:102D300001D124F0620490F88013490701D424F4EF
:102D4000B07490F8D010490701D424F0040490F82E
:102D5000E81109B924F0100490F8041309B924F417
:102D6000C07490F82002C00701D124F400744C49CB
:102D70000020401C8842FCD3200502D52046FFF7E6
:102D8000C5FE600701D5FFF798FFE00714D03E4865
:102D900044494088FFF7E2FE286890F820000007C9
:102DA0000AD54048FFF7ABFB3F4901233F4A086083
:102DB00001463C48FFF7DBFB14F0820F02D02046AF
:102DC000FFF78EFF3A490120087002F020FC002036
:102DD000FDF752FCBDE870400320FDF74DBCF0B498
:102DE000284900222B4C0B68B3F8EF10814214D213
:102DF000B3F8F510814201D803220EE05FF0010123
:102E000003EB4105B5F8EF50A84201D10A4602E0B4
:102E10000DD2A1F101028A420DD1C2EB021004EBE6
:102E2000C011F0BC4FF4F0621E48FFF766BC491CAD
:102E30000429E5DBF1E703EB41031A4D33F8ED2FED
:102E4000C1EB01115B88801A00029A1A90FBF2F321
:102E500000204FF4707604EBC11100BF01EB40027B
:102E6000A2F5F06231F91040B2F90020A41A5C43D7
:102E700002EB242225F81020401CB042EEDB19E0C2
:102E80002C4710001C0910007C2F1000641D10003E
:102E9000E4151000CE070120CE2901200A2A0120C6
:102EA00020A107004E0001204C091000DC2E10006C
:102EB00032091000F0BC704770B53448012303702C
:102EC0003348017F41F0040101773249096891F8E4
:102ED0001E214FF00001D4070CD0C2F34202012A98
:102EE00008D12D4A1160121F11602C4AC414C2F877
:102EF000FC41D46780F86010482484761122C276A1
:102F000080F8603044258576C276254D2960FF2102
:102F100056073186042180F860108476C2762B60D3
:102F200070BD1B4810B5017F41F0040101771949BC
:102F3000096891F81E214FF00001D3070BD0C2F3AE
:102F40004202012A07D1154BC414FC331C60124BFA
:102F50001A601B1F1A604FF00052538E104C2160F4
:102F600080F86010482484761124C476108E4FF4C3
:102F7000FA42C01A80B2B2FBF0F00A4A000910709F
:102F80005520521E10700148017010BD70091000CC
:102F9000001000201C091000240A002284E000E038
:102FA00024050022F307100010B501461022BF4887
:102FB000FFF7A3FB8021BDE810400120FDF762BAB6
:102FC00030B595B004466846FFF7C6FB012C07D123
:102FD0000120ADF8000000208DF812008DF81000DF
:102FE000BDF80200AFF23F0140F48670AF4D019191
:102FF000ADF8020003246846FEF7C6F914AB0022C0
:1030000080210120FDF77DFA80210120FDF769FA7A
:103010002878002804D0FEF713FF641E002CEADC99
:1030200015B030BD2DE9F04100240120FFF7C8FFA5
:103030009E4845689E4801684A7D087D521C00FBF9
:1030400002F61CE035F91020002A02DC44F02004CE
:1030500014E040F6FF739A4202DB44F010040DE0E6
:10306000B1F83471B1F8BE3107EB030C944505DAC1
:10307000FF1A974202DD0BB144F04004401C864227
:10308000E0DC2046BDE8F081024618215FF0010037
:1030900000FA01F3134201D1491EF9D5491C8840B9
:1030A000104370472DE9F05FFFF778F90546FFF709
:1030B0007BF97F4C0746206890F84507000603D54A
:1030C0002846FFF7E1FF05464FEA55094FF4F06146
:1030D00078480AF078F94FF027084FF0000A0120ED
:1030E000FFF76EFF71480026D0F804B07048006802
:1030F000047D34E0012000FA06F111EA090F2DD019
:1031000000250120A840384225D029463046FFF747
:1031100054F96749DFF89CC109683CF91430B1F8EB
:103120003421991A3BF91430A3EB020200D549422D
:10313000002A00DA5242914204DB5F492CF8143035
:1031400021F814003F2805D2401CC2B2294630465F
:10315000FFF74BF9641C6D1C202DD2DB761C464515
:10316000C8DBFEF795FA0AF1010ABAF1400FB6DBA7
:103170004F484FF0010B00250068067D012101FA40
:1031800005F010EA090F16D000240120A0403842B3
:103190000ED04948214610F81600824602462846BD
:1031A000FFF723F9BAF13F0F01D34FF0000B761C64
:1031B000641C202CE9DB6D1C4545DFDBBBF1000FF7
:1031C00002D10320FEF760FEFEF762FA0120FFF74E
:1031D000F7FEBDE8F05F25E72DE9F05F344A11689E
:1031E00091F83001C4073548037803F0F00514D096
:1031F000057000264B7D0C7DDFF8B0A05B1CB0464F
:10320000914604FB03F783460120FFF7D9FE2046D1
:10321000DAF80420D9F800100FE091F83E1101F01F
:103220000F0129430170BDE8F09F00BF32F9103053
:10323000B1F832C16345F6DB401C8742F6DC0F2E45
:103240000AD2761CF6B245EA060108F101088BF8AD
:103250000010B8F1100FD7DBBDE8F05F0220FEF7D9
:1032600013BE10B501244FF4E16120050AF0CDF83A
:10327000FEF70EFAFFF7B0FFFFF714FF0C4A44EA1F
:1032800000640E481268401D017892F8FB2701F097
:10329000F00102F00F02114301700948FFF7F3F843
:1032A0002046BDE8104002F061BC00003C47100021
:1032B0001C091000E48E012064960120F60710001E
:1032C000642E10002DE9F04F0020FF4D0446024609
:1032D000012140F6FF7BFD4BD5F814906E681B680A
:1032E00001FA02F737421CD039F914A0BAF1000FE5
:1032F00002DC40F0200013E0DA4502DB40F0100071
:103300000EE0B3F836C1B3F84171E6460CEB07089E
:10331000D04503DBAEEB070CD44501DD40F04000A7
:10332000641C521C202ADBD30024AF69AE682246FD
:1033300001FA02F535421AD037F91450002D02DC9B
:1033400040F0200012E05D4502DB40F010000DE08F
:10335000B3F83A81B3F8439108EB090CAC4503DBB1
:10336000A8EB090CAC4501DD40F04000641C521C88
:10337000202ADDD3BDE8F08F10B501461022D448D5
:10338000FFF7BBF98021BDE810400120FDF77AB8B6
:1033900030B595B06846FFF7DFF92020ADF80000A2
:1033A00000208DF836008DF83500C7484168490087
:1033B0000A9180680B90BDF80200AFF2430140F41F
:1033C0008670C34D0191ADF8020003246846FDF7F5
:1033D000DBFF14AB002280210120FDF792F8802151
:1033E0000120FDF77EF82878002804D0FEF728FD9C
:1033F000641E002CEADC15B030BD2DE9F84F1E210B
:10340000B4480AF002F8B3482D211E3009F0DBFF62
:10341000FEF70BFAFEF7A9F9042003254FF0000888
:103420004FF00109A84CDFF8A4A20090FFF7B0FF0D
:10343000E8072BD04FF0000B5F465E46616809FA43
:1034400006F008421AD040F26C713046FEF7EBFFEE
:10345000616931F91720DAF80010B1F845118A4294
:103460000BDA3F2809D200994FF0010B0844C1B292
:1034700040F26C723046FEF7EBFF7F1C761C202E6C
:10348000DCD3BBF1000F01D125F00105A8072BD536
:103490004FF0000B5F465E46A16809FA06F008424D
:1034A0001AD040F28A713046FEF7BDFFA16931F9AA
:1034B0001720DAF80010B1F847118A420BDA3F28DA
:1034C00009D200994FF0010B0844C1B240F28A7250
:1034D0003046FEF7BDFF7F1C761C202EDCD3BBF1EF
:1034E000000F01D125F0020545B1FEF79EF9FEF768
:1034F0003CF908F10108B8F1640F97DB03254FF0A0
:10350000000800BFFFF744FFE80729D04FF0000B89
:103510005F465E46616809FA06F0084218D040F23C
:103520006C713046FEF77FFF616931F91720DAF8D8
:103530000010B1F845118A4209DD40B1401EC1B208
:103540004FF0010B40F26C723046FEF781FF7F1C9A
:10355000761C202EDED3BBF1000F01D125F0010532
:10356000A80729D54FF0000B5F465E46A16809FA0F
:1035700006F0084218D040F28A713046FEF753FF39
:10358000A16931F91720DAF80010B1F847118A4221
:1035900009DD40B1401EC1B24FF0010B40F28A720A
:1035A0003046FEF755FF7F1C761C202EDED3BBF184
:1035B000000F01D125F00205002D08D0FEF735F9E6
:1035C000FEF7D3F808F10108B8F1640F9ADBBDE803
:1035D000F88F2DE9F0413F4D002089351E212870DC
:1035E0003C4809F012FF3B482D211E3009F0EBFE4C
:1035F000FEF7BBF8FEF719F90027334EFFF7C8FEB8
:10360000D6E904320024204606E000BF32F910104B
:10361000A14200DD0C46401C9842F7DB0020F36815
:10362000B26905E032F91010A14200DD0C46401CE1
:103630009842F7DB002C09DC28780F2803D8401CBF
:103640002870FEF7F2F87F1C202FD7DB40F6FE70C3
:10365000844206DD2878401E2870BDE8F041FEF760
:10366000E4B8BDE8F081F0B5174A0020194F56685C
:10367000643F01460446012303FA04F5354203D0B2
:103680003D5D854200D92846641C202CF4D3114EA0
:10369000D2F808703C3E002403FA04F53D4203D002
:1036A000355D8D4200D92946641C202CF4D3094D88
:1036B0008D356E1C2870AB1E31701B781C186B1E6C
:1036C0001B780B4408E000007C0910001C09100066
:1036D0004C4710006C071000FA4F4FF0FF0C9C4253
:1036E0003F6847F0800708D2191B0844FF2801D81B
:1036F0002870F0BD85F800C009E0A342F9D2E01AB5
:103700000844FF2801D83070F0BD86F800C017606B
:10371000F0BD2DE9F0410020EB4CEA4BEB4A0121D2
:103720004FEA00055F6801FA00F63E4209D01768CB
:10373000265C97F84A71BE4202D9F61B265400E077
:103740002554401C2028EDD3DF4C28345FF00000C6
:103750009F6801FA00F63E4209D01768265C97F888
:103760004A71BE4202D9F61B265400E02554401C83
:103770002028EDD3FFF777FFBDE8F041FEF730B822
:103780002DE9F84FD048D04D06462835282109F0BC
:103790003CFE3C21284609F038FEFFF764FFFEF7A7
:1037A00044F8FEF71DF80420032400274FF0010918
:1037B000DFF810A3DFF814B3CDF80000FFF7E8FD41
:1037C000E00728D04FF0000C624660464FEA0A033B
:1037D00009FA00F1D3F8048011EA080F13D05969EF
:1037E00031F91280DBF80010B1F83811884509DA98
:1037F000315CDDF800804FF0010C4144FF2900DD11
:10380000FF213154521C401C2028E1D3BCF1000F91
:1038100001D124F00104A00727D54FF0000C624627
:103820006046534609FA00F1D3F8088011EA080F00
:1038300013D0996931F91280DBF80010B1F83C110E
:10384000884509DA295CDDF800804FF0010C41441D
:10385000FF2900DDFF212954521C401C2028E1D300
:10386000BCF1000F01D124F0020444B1FFF7FBFECC
:10387000FDF7DBFFFDF7B4FF7F1C642F9EDB032405
:103880005FF00007FFF784FDE00724D04FF0000E43
:10389000714670465246DC46D2F8048009FA00F3BD
:1038A00013EA080F0FD05369DCF8008033F91130A8
:1038B000B8F83881434505DD335C1BB15B1E4FF022
:1038C000010E3354491C401C2028E5D3BEF1000FE3
:1038D00001D124F00104A00725D54FF0000E714658
:1038E000704652464FEA0B0CD2F8088009FA00F3F2
:1038F00013EA080F0FD09369DCF8008033F9113018
:10390000B8F83C81434505DD2B5C1BB15B1E4FF0D5
:10391000010E2B54491C401C2028E5D3BEF1000F9A
:1039200001D124F00204002C08D0FFF79CFEFDF723
:103930007CFFFDF755FF7F1C642FA3DB47E663493F
:1039400030B409680020034691F8302192070CD565
:103950005D4A91F84941EF3201201578A54203D91B
:10396000A5EB0404147000E0137091F830215207A5
:103970000CD5554A91F84911F03240F00200147804
:103980008C4202D9611A117000E01370002801D036
:1039900030BC68E630BC70472DE9F0474B49002445
:1039A0004B4D0868274690F83021920702D5012434
:1039B0002F7002E090F83F212A70894690F830116C
:1039C000444E490703D544F00204377002E090F8F2
:1039D00040013070002C7FD028213B4809F015FDB4
:1039E00039483C21283009F010FD39481E21801E3D
:1039F00007703548643009F008FD35482D216D38D1
:103A000009F0E1FC3349FF20891C0870491E087049
:103A1000FDF7E6FEFDF7A9FEFDF707FFDFF8A4803E
:103A20004FF0100A002700BFFFF7B2FCE00723D0D9
:103A3000D8E9043C0020014606E000BF3CF9112013
:103A4000824200DD1046491C9942F7DBD9F800108C
:103A5000B1F83621824202DA2878401E08E0B1F837
:103A60004B11814206DB28785044FF2800DDFF20FF
:103A7000287001E024F00104A00730D500200146A1
:103A8000D8F80CC0D8F8183006E000BF33F9112080
:103A9000824200DD1046491C6145F7DBD9F8001071
:103AA000B1F83A21824202DA3078401E08E0B1F8DB
:103AB0004B11814211DB30785044FF2800DDFF209C
:103AC00030700CE07C091000080710001C09100081
:103AD000F7071000F80710000AE024F00204002C99
:103AE00006D0FFF7C0FDFDF7A0FE7F1C202F9BDB5B
:103AF000BDE8F08770B5324C00202060FEF7F3FB84
:103B00006060FEF71BFCA0606068042140086060F4
:103B1000201DFEF7ABFB2061042104F10800FEF735
:103B2000A5FBE060FFF734FC264E2169B06800EB8E
:103B300041026261E26802EB410100EB4100A061D9
:103B4000FFF72AFFFFF7FBFE1F4D286890F83001B2
:103B5000800603D5FFF714FEFFF7DBFD286890F819
:103B60003001000701D5FFF734FD286890F83001D7
:103B7000C00601D5FFF741FCFDF757FEFFF708FC33
:103B8000B068216900EB41026261E26802EB410129
:103B900000EB4100A061FFF795FB2168084320601E
:103BA0000A492A6800040B7892F8FB2740F00200CB
:103BB00063F303020A70BDE8704001F0D7BF000054
:103BC0007C0910004C4710001C091000FB07100076
:103BD00010B5014610229248FEF78FFD8021BDE806
:103BE00010400120FCF74EBCF0B58E4D06460C4649
:103BF00028684FF0FF3195B090F8B10000F00F0049
:103C0000401C8140CF436846FEF7A6FD0120ADF879
:103C10000000ADF80240286810F8F91F8DF8131065
:103C200044F00501ADF802100297ADF81660AFF24E
:103C30005F01019141788DF814108078784D8DF8EE
:103C40001A0003246846FDF79FFB14AB0022802175
:103C50000120FCF756FC80210120FCF742FC28786B
:103C6000002804D0FEF7ECF8641E002CEADC15B046
:103C7000F0BD2DE9F0476B4D4FF00009DFF8A08152
:103C8000286800F570700478467887781AE049460D
:103C90002046FFF7A9FFD8F8040005F085FD01468E
:103CA000286890F8F82012F00F0000D101201209C6
:103CB0004A43B2FBF0F082B22146302001F099FF76
:103CC000E01984B2B442E2DDBDE8F0872DE9FF5F80
:103CD0004FF6FF764FF0000A93460F468046344673
:103CE0005546DFF840911BE038F815005146FFF7C4
:103CF0007BFF4B48406805F057FDD9F8001091F85C
:103D0000F82012F00F0100D1012112094243B2FB49
:103D1000F1F080B2A04202D238F8156004466D1C62
:103D2000BD42E1DBABF8006003980480BDE8FF9F73
:103D30002DE9F0413B4E05468846306888B090F842
:103D4000D12002F00F01C2F30214491C641C0A299D
:103D500000DD0A21022C00DD0224D23006AB05AAC8
:103D6000FFF7B4FF326892F8D00080071BD5BDF88A
:103D700014600121E632ADF8006000204FF4803C71
:103D80006F4607E013563344634502D227F81130DB
:103D9000491C401CA042F5DB002904DD06AB05AA46
:103DA0003846FFF793FFBDF814002880BDF81810BF
:103DB000A8F8001008B0BDE8F0817CB50020FCF741
:103DC00040FC194C01A968466588FFF7B1FF154E04
:103DD0003068B0F8E810BDF80400814201D92180B4
:103DE00000E02080BDF8000060800020FCF744FC6B
:103DF000BDF80000854207D0306890F8D000400739
:103E000002D56088FEF7EBFF0849012008700849D9
:103E10000870BDF800202946092001F0CDFE7CBDC8
:103E20005C4710001C0910007C2F100032091000A4
:103E30006A0910002DE9F041174604460D46002698
:103E400009E0E00703D03146384601F0E5FD761C75
:103E50006D084FEA340454EA0500F2D1BDE8F08160
:103E600030B5034600204FF0FF32012505FA00F47B
:103E70000C4202D0521C9A4203D0401C2028F5D399
:103E8000002030BDF0B50E460125074605FA06F2C2
:103E9000FE4C0F2FD4E9151065D2DFE807F064431C
:103EA0004B08106464192129323A54585C0030469A
:103EB000FFF7D6FF8540A06A0543A56253E001469F
:103EC0003046FFF7CDFF8540206C054325644AE06E
:103ED0003046FFF7C5FF8540E06A0543E56242E0F2
:103EE0003046FFF7BDFF8540206B054325633AE070
:103EF00001463046FFF7B4FF8540A06C0543A5643A
:103F000031E03046FFF7ACFF8540606B05436563E9
:103F100029E001463046FFF7A3FF8540E06C0543EA
:103F2000E56420E03046FFF79BFF8540606A05436B
:103F3000656218E001463046FFF792FF8540E06B6E
:103F40000543E5630FE0A06B0243A2630BE0206D25
:103F50000243226507E001463046FFF781FF8540B6
:103F6000606C054365642068401C2060F0BD10B59E
:103F700001461022C648FEF7C0FB8021BDE8104074
:103F80000120FCF77FBA10B5FEF792F94008400017
:103F900010BD2DE9F047894605464FF0FF34FEF786
:103FA00095F9BA4F00231946D7F804604FF0010C79
:103FB0000CFA01F2024200D0641CAC4206D1B9F105
:103FC000010F0AD020EA02030E462021491C2029B5
:103FD000EED318467E60BDE8F0871346F4E72DE97E
:103FE000F047894605464FF0FF34FFF7CCFFA74F57
:103FF000024600207B6801464FF0010C0CFA01F6E6
:10400000164200D0641CAC4206D1B9F1010F08D0B1
:1040100022EA06000B461E21491C1E29EED97B60B0
:10402000D9E73046F6E7F0B599B004460F46684642
:10403000FEF792FB14A8FDF7EFFDFFF7A4FF934EE8
:1040400040087065FEF742F9924DB065012C0BD027
:104050002026022C26D0032C2AD0042C2DD0052C6F
:1040600034D0062C52D068E0FEF798F90290FEF7A3
:104070009BF903900120ADF800000C20ADF816006C
:104080001F208DF8140040208DF8130095208DF826
:104090001A003C20ADF8180002984008706503989B
:1040A000B0654AE0FFF76FFF0A90FEF70FF914E0E2
:1040B000FEF70CF901210B9003E0FEF707F9002150
:1040C0000B903846FFF78BFF0A9007E0FFF75BFF86
:1040D0000A9001213846FFF75CFF0B90ADF80060B5
:1040E000286800F55A7081788DF83410C1788DF801
:1040F000371001788DF8381041788DF839108188A3
:10410000ADF830100089ADF8320016E0FFF73BFF44
:104110000A90FEF7DBF80B90ADF80060286800F21B
:10412000613081788DF83410C1788DF837100178BE
:104130008DF8381040788DF839000020BDF8021055
:104140008DF8360021F030018DF8100041F00801A3
:104150008DF835008DF81200ADF80210AFF2F111B4
:1041600003260191012C12D0092C23D00A2C21D036
:104170008DF85A008DF85C008DF85B00022C10D091
:10418000032C0ED0042C0CD0052C0AD012E0296888
:1041900091F84D178DF8540041F003018DF850103F
:1041A000E6E72868B0F86E13ADF85610B0F8720361
:1041B000ADF8580014A8FDF750FD354C6846FDF7E2
:1041C000E3F818AB002280210120FCF79AF9802146
:1041D0000120FCF786F92078002804D0FDF730FE96
:1041E000761E002EEADC19B0F0BD2DE9FC5F00213F
:1041F0000120FFF718FF26484768FEF7CFF8019027
:10420000FEF7D2F80090042101A8FEF72FF8064629
:1042100004216846FEF72AF8844600200546DFF8A8
:104220006CB0DFF870A000905BE000BF4FF00008BA
:10423000C1465C462846DBF85810FFF711FE0146E0
:1042400001208840A16C08424AD1012439E000BF16
:1042500004FB0C51DAF8000037F9112090F86703DD
:10426000B2EB001F2CDA08F10108B9F1000F00D100
:10427000A146721E944223D1B8F1010F20D1ACF1B6
:10428000010295420BD1611E012005E09809100042
:104290006C4710001C091000FFF7F4FD0EE007EB5F
:1042A0004101B1F90220B2EB001F05DB35B131F954
:1042B000021CB1EB001F01DA002000E00220804662
:1042C000641CB442C4DBA6EB0901414508D8294669
:1042D0000220FFF7D7FD01200099A8400843009075
:1042E0006D1C6545A2DB01253BE000BF4FF00008D7
:1042F00044462CE0DBF84030DBF8482000201A432D
:1043000011D0D9462046DBF85810FFF7A9FD014629
:1043100001208840D9F84810084203D1D9F840104C
:10432000084000D0012005FB0C4137F91120DAF8D4
:10433000001091F86713B2EB011F07DA30B90120C2
:104340000099A040084201D108F10108641C6445AD
:10435000D0DBB8F1000F03D0691E0120FFF792FDFA
:104360006D1CB542C2DBBDE8FC9F2DE9F041E04C7D
:1043700000200546DF4FDFF88083A0611EE029465C
:104380000520FFF750FE21690120BE6800EB410CBB
:1043900036F91C10D8F8000090F87703B1EB001F35
:1043A00003D929460E20FFF76DFD36F91C00A169DF
:1043B000884202DD36F91C00A0616D1C60698542EF
:1043C000DDD34BE52DE9F04100210620FFF72BFE60
:1043D000C8480025C84EC64C87680EE0E0683168C2
:1043E000284437F9100091F86513B0EB011F03DD85
:1043F00029460A20FFF746FD6D1C20698542EDDB4A
:1044000000250EE0A0683168284437F9100091F8C3
:104410006613B0EB011F03DD29460B20FFF732FDC9
:104420006D1C60698542EDDB18E52DE9F041B04C6B
:1044300000200646206237E031460420FFF7F3FDF6
:10444000AC48002587682BE0FDF740FF0146284671
:10445000FFF706FD014601208840216C08421ED16D
:10446000A549A0682844096807EB400030F9040C0E
:1044700091F87813B0EB011F07D931460820FFF7F8
:1044800001FD29460920FFF7FDFCA068216A2844A8
:1044900007EB400030F9040C884200DD20626D1CFF
:1044A00060698542D0D3761C20698642C4D3D5E4A6
:1044B0002DE9F0418E4C002005468E4FDFF8388202
:1044C000E0611AE029460320FFF7ADFDBE68B6F9AA
:1044D0000210D8F8000090F87603B1EB001F03D962
:1044E00029460720FFF7CEFCB6F90200E1698842B1
:1044F00002DDB6F90200E0616D1C20698542E1D35E
:10450000ACE42DE9F04100210220FFF78CFD794851
:10451000794D774C8768286890F86003000713D5B9
:1045200000260EE0E0682968304437F9100091F861
:104530007413B0EB011F03D931460320FFF7A2FC2F
:10454000761C20698642EDDB286890F86003C0067F
:1045500013D500260EE0A0682968304437F9100012
:1045600091F87513B0EB011F03D931460420FFF712
:1045700089FC761C60698642EDDB6FE42DE9FC4125
:104580000020FCF75EF84FF48010411208F01BFF8A
:10459000FDF74BF9FDF724F9FDF77AF8544C0020AC
:1045A0002060FFF7F0FC0090FDF790FE01900421E1
:1045B0006846FDF75BFE0546042101A8FDF756FE9F
:1045C000014600EB4500C4E90205C4E904514A4D27
:1045D000286890F86003010701D4C00601D5FFF7F1
:1045E00090FF286890F86003800601D5FFF760FF10
:1045F000286890F86003000601D5FFF716FF2868C9
:1046000090F86003C00701D0FFF7DCFE286890F83F
:104610006003400601D5FFF7A8FE286890F8600304
:10462000800701D5FFF7E1FD206800285BD0D4E9C1
:104630000A359D43E562606AD4E90F179843A843A1
:104640006062666CB943B143E163A16B226D99432B
:10465000A943256BBA43A943A163A16CB2438A4322
:10466000AB43A362226501220021FFF7E3FB022294
:104670000021E06BFFF7DEFB03220021A06AFFF7B9
:10468000D9FB04220021206CFFF7D4FB0722002174
:10469000E06AFFF7CFFB08220021206BFFF7CAFB7F
:1046A00009220021A06CFFF7C5FB0A220021606BE4
:1046B000FFF7C0FB0B220021E06CFFF7BBFB0C22D5
:1046C0000021A06BFFF7B6FB0D220021206DFFF744
:1046D000B1FB0E220021606CFFF7ACFB0020FBF762
:1046E000CBFFBDE8FC810021084601F095F9F5E714
:1046F000980910006C4710001C09100008B5574DB0
:10470000574E0024287880B10128FBD16B46002247
:1047100046F27D71FBF7F5FE0098C1071ED001211E
:104720000846FBF7DEFE2C70ECE701210020FDF7C8
:104730003CFE6B46002202210120FBF7E2FE012134
:104740000846FDF732FE00988007DBD546F27F7100
:104750000120FBF7C6FE01202870D3E701070CD526
:1047600008210120FBF7BDFE0020FBF76AFF0620B1
:10477000FBF767FFFEF775FD0DE0410712D5042139
:104780000120FBF7AEFE0020FBF75BFF0620FBF7E6
:1047900058FFFFF7AFF90620FBF76EFF0020FBF78D
:1047A0006BFFAFE7C1060AD510210120FBF799FE88
:1047B0002C4800780028A5D1FFF7FFFAA2E7810670
:1047C00001D520210DE0C10507D54FF480710120EE
:1047D000FBF787FEFFF74DFA94E7810505D54FF407
:1047E00000710120FBF77DFE8CE7410606D54021D4
:1047F0000120FBF776FEFFF7C1FE83E7410522D5D6
:104800004FF480610120FBF76CFE174804601748E5
:10481000076804603846FEF770FAA7F54070B738AD
:1048200001D1052009E0F80701D0152005E017F0B7
:10483000420F04D0306840F0060001F097F90C48B0
:10484000046034605EE7800487D54FF40051012096
:10485000FBF747FEFEF730FB54E70000F4091000B9
:104860002C0910003C091000140A10002409100043
:10487000280910000E490020486008600D490870A2
:1048800070470D4810B5006890F82000C0070DD0A3
:104890000A480B4900780978084307D10320FBF741
:1048A000D0FEBDE810400320FBF7E6BE10BD0000BF
:1048B000F8091000690910001C09100037091000E0
:1048C0003C091000F0B40C4601460498C3F11006F0
:1048D000012801D0002014E02046F0BC5200FDF772
:1048E0000CBF00BF34F9105031F910705D4307FB65
:1048F0000655EF1705EB177545F30F1524F8105003
:10490000401C9042EEDBF0BC7047F0B40C46014610
:10491000DDE90460F51A012801D0002010E02046EE
:10492000F0BC5200FDF7E9BE34F9107031F910C047
:104930005F430CFB057797FBF6F724F81070401CDB
:104940009042F1DBDFE770B5002407E032F8145045
:1049500030F81460AD1B21F81450641C9C42F5DB48
:1049600070BD00004248434A00685168414000D091
:1049700050607047704710B53E4800213E4C0170B2
:104980003E49206808421CD03D480078002818D1D4
:104990000620FBF756FE3B483B49006890F85C0157
:1049A00000F00F0008700620FBF766FE374800781D
:1049B000022802D12068002803DABDE81040FFF782
:1049C00060BF10BD2B4900204860FFF753BF294C42
:1049D00008B500256570FFF7F5FF4FF6FF766078A4
:1049E00058B30128FBD16B46002255210420FBF768
:1049F00088FD0098C00706D031460420FBF771FD02
:104A0000FFF7E0FF65700098400705D504210846D0
:104A1000FBF767FDFFF7AFFF0098400603D5402185
:104A20000420FBF75EFD0098C006D8D510210420B5
:104A3000FBF757FDFFF796FFD1E704210020FDF7B4
:104A4000B4FC6B46002202210420FBF75AFD04212E
:104A50000120FDF7AAFC00988007C0D5314604204C
:104A6000FBF73FFDFFF7AEFF01206070B7E70000E6
:104A7000D80F1000000A1000500910001402008026
:104A8000370910001C0910006009100061091000AE
:104A9000FD4801218170002101707047FA48002112
:104AA0004160417001218170704770472DE9FC41E0
:104AB00015460E460746FDF716FC0090FDF73EFC36
:104AC000019000980421400800906846FDF7CEFB55
:104AD0000446042101A8FDF7C9FB00EB440C07EBD9
:104AE000440207EB4C03014606EB440706EB4C0679
:104AF000002006E032F810C00CFB05FC27F810C0BF
:104B0000401CA042F6DB002006E000BF33F8102076
:104B10006A4326F81020401C8842F7DBBDE8FC8180
:104B20002DE9FC47154689460646FDF7DCFB00905B
:104B3000FDF704FC019004216846FDF797FB04464D
:104B4000042101A8FDF792FB0146304606EB440321
:104B500005EB4407002207E030F802CB33F8028B64
:104B6000521CC44427F802CBA242F5DB01EB4402FD
:104B700006EB840006EB420305EB4206002207E049
:104B800030F8027B33F802CB521C674426F8027BD4
:104B90008A42F5DB48462946002204E030F8023B11
:104BA00021F8023B521CA242F8DB09EB440005EB62
:104BB0008402002105E000BF30F8023B22F8023BEE
:104BC000491CA142F8DBBDE8FC872DE9FC41AE4C55
:104BD0000126AE4F2078002558B9A1788020CDE974
:104BE000000138687F23AA49427DAA48FFF78DFE5D
:104BF000A5703868A649437DB0F9AE21A548FDF7F8
:104C00006BFEA5490978062902D02070304685E759
:104C10000026012802D065602570F7E7207800287B
:104C2000F4D16068401C6060012802D901206070E6
:104C3000207000F007FC01210220FBF723FCE5E7D0
:104C400070B5964D0024288810F4CA7F31D08F4E5D
:104C500093493068407D42008E48FDF74EFDFFF7D6
:104C6000B4FF0446012802D02868002821DA306801
:104C700090F8C507C1078B4808D02968490005D4BA
:104C80000830894A03C8FFF74BFF03E08068864974
:104C9000FDF73BFD2878000607D53068824990F87B
:104CA000C4270846521CFFF701FF80497E48FDF7E4
:104CB0002CFD204670BD70B5744E01253068047D12
:104CC000417DB0F9E0227A4804FB01F300EB440196
:104CD000784800EB4400FDF7FFFD6F490A786A4908
:104CE000062A09D13268002592F81821120704D546
:104CF000012804D0002048600870284670BD08785C
:104D00000028FAD14868401C48600128F5D90120E4
:104D10004870087000F096FB01210220FBF7B2FBFF
:104D2000EBE72DE9F0438946584909684C7D0B7D36
:104D3000641C012117E000BF4A1C01FB03F55A4324
:104D400000EB450600EB420709EB4505002207E0B2
:104D500036F812C037F81280C44425F812C0521C2D
:104D60009A42F5DB491CA142E6DBBDE8F08370B551
:104D7000054646480C46006890F8451709060AD5CE
:104D8000007D294642002046FDF7B7FC2146284613
:104D9000BDE87040C5E721462846BDE87040FDF7F4
:104DA000D0BC3E4910B509780020C90707D03D485E
:104DB00040494068FFF7DBFFBDE810407BE710BDCE
:104DC0002DE9F0473748354C4FF00008007828B1FE
:104DD000FDF736F8C4F80080BDE8F0872B4E306848
:104DE00090F81801800701D5FCF766FF2A4D287856
:104DF0000128EFD00620FBF724FCFFF7D2FF07467F
:104E0000FFF71EFF81460620FBF736FC2A49206883
:104E1000012F0860287855D0072801D00628D9D15D
:104E20003168244E087D4A7D00FB02F3B1F9E0228F
:104E30001F4901EB400106EB4000FDF74DFD1F4E01
:104E4000012830684AD0B0F5967F0CD91C4940F64D
:104E500005020868104340F0420008604FF480618A
:104E60000120FBF70FFBC6F8008028780628B1D197
:104E700020680028AEDA044800780028AAD106206D
:104E8000FBF7DFFB6FB332E0080A10001C091000CB
:104E9000862A01204A2A012061091000200A1000F8
:104EA000E8890120F0481000F8471000F088012040
:104EB0004E000120E415100050091000E08A012086
:104EC00024091000072806D0062804D00421032056
:104ED000FBF7D8FAC9E74FF40071F8E7401C3060DF
:104EE000C3E72078800702D0002001F06CF8B9F108
:104EF000000F08D1216811F0140F04D00448FFF707
:104F000039FDFFF7BEFC0620FBF7B6FB62E70000A9
:104F1000F088012010B540210220FBF7E2FAFE489C
:104F2000017801290BD006210170FFF7B7FDFB497D
:104F3000002048618861FA490870FA49086010BD8C
:104F400010B501461022F848FDF7D7FB0221BDE855
:104F500010400846FBF796BA70B594B00446684610
:104F6000FDF7FAFBED49F148F14B0C6102881A801C
:104F7000F04AE94B52880280EF48E2072FD0BDF893
:104F8000002042F00102ADF800201D78062D01D06E
:104F9000072D0AD1002C08DB026892F8CB678DF848
:104FA000126092F8CC278DF81020026892F82061E8
:104FB000F60714D0E14E36788EB9042D0FD0002CB0
:104FC0000DDB02F2211255788DF8135015788DF80B
:104FD0001A5092788DF81E2044F480620A6114F40D
:104FE0008A7F4FF000051FD0026892F8A061F60793
:104FF00006D092F8C567F60702D01E78032E07D0B8
:105000001B78022B1BD0072B19D0062B17D005E0DD
:10501000BDF8002042F01002ADF80020BDF80020DD
:1050200042F02002ADF80020E20545D5C44A1278CE
:10503000012A2CD0C34A1278012A28D03CE0BDF8BE
:105040000060062B46F00206ADF8006009D1BDF8FD
:10505000023023F02003ADF802300B6943F08043A7
:105060000B618DF836500B6943F080030B61DBD187
:1050700002F2C77213788DF8343053788DF83530DA
:1050800093788DF83630D2788DF83820CCE70068E8
:1050900090F8B02112070FD58DF8365090F8C5075B
:1050A000C00705D0BDF8000020F01000ADF80000EA
:1050B000086940F080000861AFF27B1001906846FB
:1050C000FCF762F914B070BDC0B2FBF77FBC924828
:1050D00010B501789848022900680BD006290CD039
:1050E00007290DD08D49897801290CD090F81A41F3
:1050F00064B10CE090F81D41FAE790F82641F7E71B
:1051000090F82741F4E790F81B41F1E71424FBF7EE
:1051100029FD002801DD04EB8404204610BD70B594
:105120008549054600200B6893F82010C9071ED05A
:1051300079490A787949022A0BD0072A09D0062A28
:1051400007D093F83930804C26785EB1062A09D012
:105150000BE00C7893F83A30032CF4D2641C0C70FA
:105160004B60F0E7794C247814B15A424A6070BD24
:105170004C68641C4C609C42F9DD002048600120B2
:105180002EB9072A03D0062A01D040F21510284074
:1051900040F0004070BD70B5014600205E4D5F4E8E
:1051A0000446062902D0072911D013E06848017887
:1051B000012906D006202870307A400709D504203E
:1051C00008E0644904700120087004F0E4FB072043
:1051D0002870012052490C705F490C70B16808407A
:1051E00070BD2DE9F04F4D49002503468A68DFF870
:1051F0006CB19146D707504ADFF85CE1DFF818A19F
:1052000014682E4628462A460AD0554F3F78012F6B
:105210000BD04D4F3F7847B9524F3F78012F04D004
:10522000042B04D0032B0CD02CE04A6131E08A61BE
:105230004F697F1C4F6194F85DC1BC4522DA4A6119
:105240002CE0494F3F78012F1BD0484F3F78012F6A
:1052500017D09BF80070012F13D094F81871FF0736
:1052600010D08F697F1C8F6194F819C10CEBCC08AA
:1052700008EB0C1CB7EB8C0F04D38A618EF800206E
:1052800011E08A61042B04D0032B07D0022B0AD033
:1052900014E004278AF8007003200FE003278AF83F
:1052A000007017200AE002258AF8005001255FEA05
:1052B000497002D51620012600E013209AF80070EC
:1052C0009F4201D08BF8002000EA0900C30708D0F4
:1052D00094F8B031DB0704D0254B1B780BB940F4B0
:1052E00080700F4B002D1D708EF8006000D10A7089
:1052F000BDE8F08F10B5094C0020E060064800784A
:10530000042837D0032835D0022833D0062834D0DB
:10531000072832D036E0000061091000100A1000A2
:1053200033091000E08A0120F04810006E091000D7
:105330006C0910007C2F10001C091000740910006B
:105340003909100038091000370910003C09100015
:10535000090A100032091000340910006909100010
:105360003A091000080A10005409100055091000ED
:105370003D091000FFF735FF01E0FFF70CFFE16882
:105380000843E060A068FFF7CAFEE1680843E060F8
:1053900010BD38B5FFF7AEFFA7490868002809DD42
:1053A000A64A127832B9401E086003D102210520B6
:1053B000FBF768F8FFF78BFEFFF786FEA048007842
:1053C000A14CC0F340019F4802780020062A14D166
:1053D0009E4A126892F8DC311B060ED511B1E178B5
:1053E00019B10BE0E061E07038BDE169491CE16191
:1053F00092F801238A42F7DA0121E170E061E06866
:1054000040F217310842EFD00020FBF71AF9E068AC
:10541000FFF7A2FD02216B4600220846FBF771F858
:1054200002210846FBF75DF8FFF7CAFC0020FBF7F6
:1054300023F938BD10B501210220FBF752F8BDE871
:105440001040A6E7FBF7D7BA7F490020804AC86022
:105450000861106048617F4A8861486010707E4A28
:1054600010707E4A1070C861C87070472DE9F04115
:10547000002704210220FBF734F87948724E0568B2
:10548000B06890EA050427D02C404FF6FF7807D08B
:1054900030B9012741460220FBF723F8FFF7D4FF7C
:1054A000600701D5FFF701FB664CB5602DB1012FF8
:1054B00012D1E8070BD004200AE0FBF79CFA012088
:1054C00020704146BDE8F0410220FBF70AB80320F6
:1054D0002070BDE8F0415CE7BDE8F08110B5102117
:1054E0000220FAF7FEFF58490120887010BD10B560
:1054F00008210220FAF7F5FF53490020887010BDFB
:1055000010B5FBF778FA4F49012008704E4900208A
:105510004870BDE810404FF6FF710220FAF7E1BF76
:1055200008B540F25D116B4600220220FAF7E9FF50
:105530000098400804D0022269465520FDF758FA29
:105540000098C00501D5FFF7DBFF0098000701D5E3
:10555000FFF7CDFF0098C00601D5FFF7BFFF009809
:10556000400701D5FFF782FF0098C00701D0FFF781
:1055700061FF0098400601D5FFF7CCFC08BD31491A
:105580000120384A087030490020384B8860887004
:10559000C8600861486188611070334A52881A8077
:1055A000334B1A80C861C870FFF772BA08B5022180
:1055B0000020FCF7FAFE6B4600224FF40071022037
:1055C000FAF79FFF02210120FCF7EFFE0222694655
:1055D0005620FDF70DFA0098800509D5FFF7CFFF9B
:1055E0004FF6FF710220FAF77CFF1749012048703F
:1055F00008BD154C0020607006E0607820B10128DD
:10560000FBD1FFF78DFFF8E7FFF7D0FFF5E70E4975
:105610000020486188610F4908700F490870704781
:1056200010B5FBF7E8F91349042008770121BDE81C
:1056300010400220FAF726BFD40F100037091000DF
:105640004B00002061091000100A10001C09100016
:10565000500910003309100034091000080A100026
:10566000D80F10006A0910007C2F10006C09100080
:105670006E0910000010002010B504460220FAF751
:10568000E0FF2046FBF778FABDE810400220FAF769
:10569000F3BF1CB500220092019202788DF8002021
:1056A000427802F00F0242EA01118DF8011041899F
:1056B000C1F307118DF802100189C1F307118DF8AC
:1056C0000310817A09018DF80410027A02F00F02AA
:1056D00011438DF80410C17801F03F018DF80510D9
:1056E000427941EA82118DF8051000798DF80600A3
:1056F000FE480068C007400E8DF807006846FFF7B7
:10570000BBFF1CBD1CB500200090019002208DF84D
:105710000000F6480068C007400E8DF80700684694
:10572000FFF7AAFF1CBD1CB5002000900190F048B7
:1057300000684178827810208DF800004006437A96
:105740008DF80130EB4B1B788DF8023043891B0A32
:105750008DF8033040898DF80400E4488DF8051079
:105760008DF806200068C007400E8DF807006846D7
:10577000FFF782FF1CBD1CB5002000900190112096
:105780008DF80000D9480068C007400E8DF807006A
:105790006846FFF771FF1CBD2DE9FC41064600205D
:1057A00000900190122015460C468DF800004FF035
:1057B00008571EE0200A8DF80100C4F30B008DF895
:1057C0000240315C30448DF8031041788DF80410AC
:1057D00081788DF80510C0788DF80600D7F8E001C3
:1057E000C007400E8DF807006846FFF745FF241DEF
:1057F0002D1F002DDEDCBDE8FC811CB500220192CE
:1058000000920F228DF800208DF801008DF806100F
:105810004020B6498DF80700012008606846FBF774
:10582000ABF91CBD1CB5002300930193DB238DF85D
:1058300000308DF801008DF80210100E8DF8030075
:10584000100C8DF80400100A8DF80500A7488DF89B
:1058500006200068C007400E8DF807006846FFF775
:105860000BFF1CBD1CB500210091019120218DF87A
:1058700000108DF801009D480068C007400E8DF8AB
:1058800007006846FFF7F8FE1CBD2DE9FC5F0646E1
:10589000DDE90D87002000904FF0210A01908DF87E
:1058A00000A048881446C0F3032040F010008DF893
:1058B000010088788DF8020008884FF0085BC0F37B
:1058C00003208DF8030008788DF804006088DDF867
:1058D0003090C0F303208DF80500A0788DF8060005
:1058E000DBF8E0011D46C007400E8DF80700684652
:1058F000FFF7C2FE072E7DD0082E7ED0092E7CD069
:105900000A2E7AD08DF800A020885646C0F30320D6
:1059100040F020008DF8010020788DF802006888A2
:105920000BF5F074C0F303208DF80300A8788DF810
:1059300004002888C0F303208DF8050028788DF82E
:1059400006002068C007400E8DF807006846FFF784
:1059500093FE8DF80060B9F80200C0F3032040F018
:1059600030008DF8010099F802008DF80200B9F8B6
:105970000000C0F303208DF8030099F800008DF8B3
:105980000400B8F80200C0F303208DF8050098F871
:1059900002008DF806002068C007400E8DF8070051
:1059A0006846FFF769FE8DF80060B8F80000C0F3A4
:1059B000032040F040008DF8010098F800008DF8B9
:1059C00002007888C0F303208DF80300B8788DF8C2
:1059D00004003888C0F303208DF8050038788DF86E
:1059E00006002068C007400E8DF807006846FFF7E4
:1059F00043FE00E001E0BDE8FC9F8DF800A0208898
:105A0000C0F3032040F020008DF8010020788DF8CD
:105A10000200DBF8E001E5E71CB5002200920192EC
:105A20000F228DF8002005228DF801208DF802004C
:105A30002E488DF803100068C007400E8DF807004F
:105A40006846FFF719FE1CBD2DE9FC410025044600
:105A5000009514208DF800004FF000500195417A18
:105A60008DF80110234909788DF802104189090A3F
:105A70008DF8031040891E4F8DF804001B4E3868C6
:105A800041788DF8051080788DF806003068C007E1
:105A9000400E8DF807006846FFF7EEFD00951520D3
:105AA00001958DF80000386800F5FC6001788DF8EC
:105AB000011041788DF8021081788DF80310C078BC
:105AC0008DF804003068C007400E8DF80700684666
:105AD000FFF7D2FD00951B2001958DF8000060684E
